{
	"contracts/CentralRole.sol": {
		"CentralRole": {
			"abi": [
				{
					"anonymous": false,
					"inputs": [
						{
							"indexed": true,
							"internalType": "address",
							"name": "account",
							"type": "address"
						}
					],
					"name": "CentralAdded",
					"type": "event"
				},
				{
					"anonymous": false,
					"inputs": [
						{
							"indexed": true,
							"internalType": "address",
							"name": "account",
							"type": "address"
						}
					],
					"name": "CentralRemoved",
					"type": "event"
				},
				{
					"inputs": [
						{
							"internalType": "address",
							"name": "account",
							"type": "address"
						}
					],
					"name": "addCentral",
					"outputs": [],
					"stateMutability": "nonpayable",
					"type": "function"
				},
				{
					"inputs": [
						{
							"internalType": "address",
							"name": "account",
							"type": "address"
						}
					],
					"name": "isCentral",
					"outputs": [
						{
							"internalType": "bool",
							"name": "",
							"type": "bool"
						}
					],
					"stateMutability": "view",
					"type": "function"
				},
				{
					"inputs": [],
					"name": "renounceCentral",
					"outputs": [],
					"stateMutability": "nonpayable",
					"type": "function"
				}
			],
			"devdoc": {
				"kind": "dev",
				"methods": {},
				"version": 1
			},
			"evm": {
				"assembly": "    /* \"contracts/CentralRole.sol\":93:890  contract CentralRole {... */\n  mstore(0x40, 0x80)\n  callvalue\n  dup1\n  iszero\n  tag_1\n  jumpi\n  0x00\n  dup1\n  revert\ntag_1:\n  pop\n  dataSize(sub_0)\n  dup1\n  dataOffset(sub_0)\n  0x00\n  codecopy\n  0x00\n  return\nstop\n\nsub_0: assembly {\n        /* \"contracts/CentralRole.sol\":93:890  contract CentralRole {... */\n      mstore(0x40, 0x80)\n      callvalue\n      dup1\n      iszero\n      tag_1\n      jumpi\n      0x00\n      dup1\n      revert\n    tag_1:\n      pop\n      jumpi(tag_2, lt(calldatasize, 0x04))\n      shr(0xe0, calldataload(0x00))\n      dup1\n      0x0e23e141\n      eq\n      tag_3\n      jumpi\n      dup1\n      0x280f6efa\n      eq\n      tag_4\n      jumpi\n      dup1\n      0xb343ab46\n      eq\n      tag_5\n      jumpi\n    tag_2:\n      0x00\n      dup1\n      revert\n        /* \"contracts/CentralRole.sol\":536:607  function renounceCentral() public {... */\n    tag_3:\n      tag_6\n      tag_7\n      jump\t// in\n    tag_6:\n      stop\n        /* \"contracts/CentralRole.sol\":352:453  function isCentral(address account) public view returns (bool) {... */\n    tag_4:\n      tag_8\n      0x04\n      dup1\n      calldatasize\n      sub\n      dup2\n      add\n      swap1\n      tag_9\n      swap2\n      swap1\n      tag_10\n      jump\t// in\n    tag_9:\n      tag_11\n      jump\t// in\n    tag_8:\n      mload(0x40)\n      tag_12\n      swap2\n      swap1\n      tag_13\n      jump\t// in\n    tag_12:\n      mload(0x40)\n      dup1\n      swap2\n      sub\n      swap1\n      return\n        /* \"contracts/CentralRole.sol\":457:532  function addCentral(address account) public {... */\n    tag_5:\n      tag_14\n      0x04\n      dup1\n      calldatasize\n      sub\n      dup2\n      add\n      swap1\n      tag_15\n      swap2\n      swap1\n      tag_10\n      jump\t// in\n    tag_15:\n      tag_16\n      jump\t// in\n    tag_14:\n      stop\n        /* \"contracts/CentralRole.sol\":536:607  function renounceCentral() public {... */\n    tag_7:\n        /* \"contracts/CentralRole.sol\":576:602  _removeCentral(msg.sender) */\n      tag_18\n        /* \"contracts/CentralRole.sol\":591:601  msg.sender */\n      caller\n        /* \"contracts/CentralRole.sol\":576:590  _removeCentral */\n      tag_19\n        /* \"contracts/CentralRole.sol\":576:602  _removeCentral(msg.sender) */\n      jump\t// in\n    tag_18:\n        /* \"contracts/CentralRole.sol\":536:607  function renounceCentral() public {... */\n      jump\t// out\n        /* \"contracts/CentralRole.sol\":352:453  function isCentral(address account) public view returns (bool) {... */\n    tag_11:\n        /* \"contracts/CentralRole.sol\":409:413  bool */\n      0x00\n        /* \"contracts/CentralRole.sol\":428:448  central.has(account) */\n      tag_21\n        /* \"contracts/CentralRole.sol\":440:447  account */\n      dup3\n        /* \"contracts/CentralRole.sol\":428:435  central */\n      0x00\n        /* \"contracts/CentralRole.sol\":428:439  central.has */\n      tag_22\n      swap1\n        /* \"contracts/CentralRole.sol\":428:448  central.has(account) */\n      swap2\n      swap1\n      0xffffffff\n      and\n      jump\t// in\n    tag_21:\n        /* \"contracts/CentralRole.sol\":421:448  return central.has(account) */\n      swap1\n      pop\n        /* \"contracts/CentralRole.sol\":352:453  function isCentral(address account) public view returns (bool) {... */\n      swap2\n      swap1\n      pop\n      jump\t// out\n        /* \"contracts/CentralRole.sol\":457:532  function addCentral(address account) public {... */\n    tag_16:\n        /* \"contracts/CentralRole.sol\":507:527  _addCentral(account) */\n      tag_24\n        /* \"contracts/CentralRole.sol\":519:526  account */\n      dup2\n        /* \"contracts/CentralRole.sol\":507:518  _addCentral */\n      tag_25\n        /* \"contracts/CentralRole.sol\":507:527  _addCentral(account) */\n      jump\t// in\n    tag_24:\n        /* \"contracts/CentralRole.sol\":457:532  function addCentral(address account) public {... */\n      pop\n      jump\t// out\n        /* \"contracts/CentralRole.sol\":770:888  function _removeCentral(address account) internal {... */\n    tag_19:\n        /* \"contracts/CentralRole.sol\":826:849  central.remove(account) */\n      tag_27\n        /* \"contracts/CentralRole.sol\":841:848  account */\n      dup2\n        /* \"contracts/CentralRole.sol\":826:833  central */\n      0x00\n        /* \"contracts/CentralRole.sol\":826:840  central.remove */\n      tag_28\n      swap1\n        /* \"contracts/CentralRole.sol\":826:849  central.remove(account) */\n      swap2\n      swap1\n      0xffffffff\n      and\n      jump\t// in\n    tag_27:\n        /* \"contracts/CentralRole.sol\":875:882  account */\n      dup1\n        /* \"contracts/CentralRole.sol\":860:883  CentralRemoved(account) */\n      0xffffffffffffffffffffffffffffffffffffffff\n      and\n      0xdc4358df642c960c40aac6131d0b28b29bc9420c5ef3ab89bc29388a5246532b\n      mload(0x40)\n      mload(0x40)\n      dup1\n      swap2\n      sub\n      swap1\n      log2\n        /* \"contracts/CentralRole.sol\":770:888  function _removeCentral(address account) internal {... */\n      pop\n      jump\t// out\n        /* \"contracts/Roles.sol\":756:922  function has(Role storage role, address account)... */\n    tag_22:\n        /* \"contracts/Roles.sol\":840:844  bool */\n      0x00\n        /* \"contracts/Roles.sol\":881:882  0 */\n      dup1\n        /* \"contracts/Roles.sol\":862:883  account != address(0) */\n      0xffffffffffffffffffffffffffffffffffffffff\n      and\n        /* \"contracts/Roles.sol\":862:869  account */\n      dup3\n        /* \"contracts/Roles.sol\":862:883  account != address(0) */\n      0xffffffffffffffffffffffffffffffffffffffff\n      and\n      eq\n      iszero\n        /* \"contracts/Roles.sol\":854:884  require(account != address(0)) */\n      tag_30\n      jumpi\n      0x00\n      dup1\n      revert\n    tag_30:\n        /* \"contracts/Roles.sol\":897:901  role */\n      dup3\n        /* \"contracts/Roles.sol\":897:908  role.bearer */\n      0x00\n      add\n        /* \"contracts/Roles.sol\":897:917  role.bearer[account] */\n      0x00\n        /* \"contracts/Roles.sol\":909:916  account */\n      dup4\n        /* \"contracts/Roles.sol\":897:917  role.bearer[account] */\n      0xffffffffffffffffffffffffffffffffffffffff\n      and\n      0xffffffffffffffffffffffffffffffffffffffff\n      and\n      dup2\n      mstore\n      0x20\n      add\n      swap1\n      dup2\n      mstore\n      0x20\n      add\n      0x00\n      keccak256\n      0x00\n      swap1\n      sload\n      swap1\n      0x0100\n      exp\n      swap1\n      div\n      0xff\n      and\n        /* \"contracts/Roles.sol\":890:917  return role.bearer[account] */\n      swap1\n      pop\n        /* \"contracts/Roles.sol\":756:922  function has(Role storage role, address account)... */\n      swap3\n      swap2\n      pop\n      pop\n      jump\t// out\n        /* \"contracts/CentralRole.sol\":611:766  function _addCentral(address account) internal {... */\n    tag_25:\n        /* \"contracts/CentralRole.sol\":682:687  false */\n      0x00\n        /* \"contracts/CentralRole.sol\":667:687  central.any()==false */\n      iszero\n      iszero\n        /* \"contracts/CentralRole.sol\":667:680  central.any() */\n      tag_32\n        /* \"contracts/CentralRole.sol\":667:674  central */\n      0x00\n        /* \"contracts/CentralRole.sol\":667:678  central.any */\n      tag_33\n        /* \"contracts/CentralRole.sol\":667:680  central.any() */\n      jump\t// in\n    tag_32:\n        /* \"contracts/CentralRole.sol\":667:687  central.any()==false */\n      iszero\n      iszero\n      eq\n        /* \"contracts/CentralRole.sol\":664:757  if(central.any()==false){... */\n      iszero\n      tag_34\n      jumpi\n        /* \"contracts/CentralRole.sol\":696:716  central.add(account) */\n      tag_35\n        /* \"contracts/CentralRole.sol\":708:715  account */\n      dup2\n        /* \"contracts/CentralRole.sol\":696:703  central */\n      0x00\n        /* \"contracts/CentralRole.sol\":696:707  central.add */\n      tag_36\n      swap1\n        /* \"contracts/CentralRole.sol\":696:716  central.add(account) */\n      swap2\n      swap1\n      0xffffffff\n      and\n      jump\t// in\n    tag_35:\n        /* \"contracts/CentralRole.sol\":742:749  account */\n      dup1\n        /* \"contracts/CentralRole.sol\":729:750  CentralAdded(account) */\n      0xffffffffffffffffffffffffffffffffffffffff\n      and\n      0x86cd986707fc630f5d12983d5e40b321df1017d8ed31453b5fc24b2aa558719f\n      mload(0x40)\n      mload(0x40)\n      dup1\n      swap2\n      sub\n      swap1\n      log2\n        /* \"contracts/CentralRole.sol\":664:757  if(central.any()==false){... */\n    tag_34:\n        /* \"contracts/CentralRole.sol\":611:766  function _addCentral(address account) internal {... */\n      pop\n      jump\t// out\n        /* \"contracts/Roles.sol\":484:678  function remove(Role storage role, address account) internal {... */\n    tag_28:\n        /* \"contracts/Roles.sol\":578:579  0 */\n      0x00\n        /* \"contracts/Roles.sol\":559:580  account != address(0) */\n      0xffffffffffffffffffffffffffffffffffffffff\n      and\n        /* \"contracts/Roles.sol\":559:566  account */\n      dup2\n        /* \"contracts/Roles.sol\":559:580  account != address(0) */\n      0xffffffffffffffffffffffffffffffffffffffff\n      and\n      eq\n      iszero\n        /* \"contracts/Roles.sol\":551:581  require(account != address(0)) */\n      tag_38\n      jumpi\n      0x00\n      dup1\n      revert\n    tag_38:\n        /* \"contracts/Roles.sol\":595:613  has(role, account) */\n      tag_39\n        /* \"contracts/Roles.sol\":599:603  role */\n      dup3\n        /* \"contracts/Roles.sol\":605:612  account */\n      dup3\n        /* \"contracts/Roles.sol\":595:598  has */\n      tag_22\n        /* \"contracts/Roles.sol\":595:613  has(role, account) */\n      jump\t// in\n    tag_39:\n        /* \"contracts/Roles.sol\":587:614  require(has(role, account)) */\n      tag_40\n      jumpi\n      0x00\n      dup1\n      revert\n    tag_40:\n        /* \"contracts/Roles.sol\":644:649  false */\n      0x00\n        /* \"contracts/Roles.sol\":621:625  role */\n      dup3\n        /* \"contracts/Roles.sol\":621:632  role.bearer */\n      0x00\n      add\n        /* \"contracts/Roles.sol\":621:641  role.bearer[account] */\n      0x00\n        /* \"contracts/Roles.sol\":633:640  account */\n      dup4\n        /* \"contracts/Roles.sol\":621:641  role.bearer[account] */\n      0xffffffffffffffffffffffffffffffffffffffff\n      and\n      0xffffffffffffffffffffffffffffffffffffffff\n      and\n      dup2\n      mstore\n      0x20\n      add\n      swap1\n      dup2\n      mstore\n      0x20\n      add\n      0x00\n      keccak256\n      0x00\n        /* \"contracts/Roles.sol\":621:649  role.bearer[account] = false */\n      0x0100\n      exp\n      dup2\n      sload\n      dup2\n      0xff\n      mul\n      not\n      and\n      swap1\n      dup4\n      iszero\n      iszero\n      mul\n      or\n      swap1\n      sstore\n      pop\n        /* \"contracts/Roles.sol\":671:672  1 */\n      0x01\n        /* \"contracts/Roles.sol\":655:659  role */\n      dup3\n        /* \"contracts/Roles.sol\":655:669  role.roleCount */\n      0x01\n      add\n      0x00\n        /* \"contracts/Roles.sol\":655:672  role.roleCount-=1 */\n      dup3\n      dup3\n      sload\n      tag_41\n      swap2\n      swap1\n      tag_42\n      jump\t// in\n    tag_41:\n      swap3\n      pop\n      pop\n      dup2\n      swap1\n      sstore\n      pop\n        /* \"contracts/Roles.sol\":484:678  function remove(Role storage role, address account) internal {... */\n      pop\n      pop\n      jump\t// out\n        /* \"contracts/Roles.sol\":926:1083  function any(Role storage role)... */\n    tag_33:\n        /* \"contracts/Roles.sol\":993:997  bool */\n      0x00\n        /* \"contracts/Roles.sol\":1026:1027  0 */\n      dup1\n        /* \"contracts/Roles.sol\":1010:1014  role */\n      dup3\n        /* \"contracts/Roles.sol\":1010:1024  role.roleCount */\n      0x01\n      add\n      sload\n        /* \"contracts/Roles.sol\":1010:1027  role.roleCount==0 */\n      eq\n        /* \"contracts/Roles.sol\":1007:1078  if(role.roleCount==0){... */\n      iszero\n      tag_44\n      jumpi\n        /* \"contracts/Roles.sol\":1045:1050  false */\n      0x00\n        /* \"contracts/Roles.sol\":1038:1050  return false */\n      swap1\n      pop\n      jump(tag_43)\n        /* \"contracts/Roles.sol\":1007:1078  if(role.roleCount==0){... */\n    tag_44:\n        /* \"contracts/Roles.sol\":1074:1078  true */\n      0x01\n        /* \"contracts/Roles.sol\":1067:1078  return true */\n      swap1\n      pop\n        /* \"contracts/Roles.sol\":926:1083  function any(Role storage role)... */\n    tag_43:\n      swap2\n      swap1\n      pop\n      jump\t// out\n        /* \"contracts/Roles.sol\":228:418  function add(Role storage role, address account) internal {... */\n    tag_36:\n        /* \"contracts/Roles.sol\":319:320  0 */\n      0x00\n        /* \"contracts/Roles.sol\":300:321  account != address(0) */\n      0xffffffffffffffffffffffffffffffffffffffff\n      and\n        /* \"contracts/Roles.sol\":300:307  account */\n      dup2\n        /* \"contracts/Roles.sol\":300:321  account != address(0) */\n      0xffffffffffffffffffffffffffffffffffffffff\n      and\n      eq\n      iszero\n        /* \"contracts/Roles.sol\":292:322  require(account != address(0)) */\n      tag_47\n      jumpi\n      0x00\n      dup1\n      revert\n    tag_47:\n        /* \"contracts/Roles.sol\":337:355  has(role, account) */\n      tag_48\n        /* \"contracts/Roles.sol\":341:345  role */\n      dup3\n        /* \"contracts/Roles.sol\":347:354  account */\n      dup3\n        /* \"contracts/Roles.sol\":337:340  has */\n      tag_22\n        /* \"contracts/Roles.sol\":337:355  has(role, account) */\n      jump\t// in\n    tag_48:\n        /* \"contracts/Roles.sol\":336:355  !has(role, account) */\n      iszero\n        /* \"contracts/Roles.sol\":328:356  require(!has(role, account)) */\n      tag_49\n      jumpi\n      0x00\n      dup1\n      revert\n    tag_49:\n        /* \"contracts/Roles.sol\":386:390  true */\n      0x01\n        /* \"contracts/Roles.sol\":363:367  role */\n      dup3\n        /* \"contracts/Roles.sol\":363:374  role.bearer */\n      0x00\n      add\n        /* \"contracts/Roles.sol\":363:383  role.bearer[account] */\n      0x00\n        /* \"contracts/Roles.sol\":375:382  account */\n      dup4\n        /* \"contracts/Roles.sol\":363:383  role.bearer[account] */\n      0xffffffffffffffffffffffffffffffffffffffff\n      and\n      0xffffffffffffffffffffffffffffffffffffffff\n      and\n      dup2\n      mstore\n      0x20\n      add\n      swap1\n      dup2\n      mstore\n      0x20\n      add\n      0x00\n      keccak256\n      0x00\n        /* \"contracts/Roles.sol\":363:390  role.bearer[account] = true */\n      0x0100\n      exp\n      dup2\n      sload\n      dup2\n      0xff\n      mul\n      not\n      and\n      swap1\n      dup4\n      iszero\n      iszero\n      mul\n      or\n      swap1\n      sstore\n      pop\n        /* \"contracts/Roles.sol\":412:413  1 */\n      0x01\n        /* \"contracts/Roles.sol\":396:400  role */\n      dup3\n        /* \"contracts/Roles.sol\":396:410  role.roleCount */\n      0x01\n      add\n      0x00\n        /* \"contracts/Roles.sol\":396:413  role.roleCount+=1 */\n      dup3\n      dup3\n      sload\n      tag_50\n      swap2\n      swap1\n      tag_51\n      jump\t// in\n    tag_50:\n      swap3\n      pop\n      pop\n      dup2\n      swap1\n      sstore\n      pop\n        /* \"contracts/Roles.sol\":228:418  function add(Role storage role, address account) internal {... */\n      pop\n      pop\n      jump\t// out\n        /* \"#utility.yul\":7:146   */\n    tag_53:\n        /* \"#utility.yul\":53:58   */\n      0x00\n        /* \"#utility.yul\":91:97   */\n      dup2\n        /* \"#utility.yul\":78:98   */\n      calldataload\n        /* \"#utility.yul\":69:98   */\n      swap1\n      pop\n        /* \"#utility.yul\":107:140   */\n      tag_55\n        /* \"#utility.yul\":134:139   */\n      dup2\n        /* \"#utility.yul\":107:140   */\n      tag_56\n      jump\t// in\n    tag_55:\n        /* \"#utility.yul\":7:146   */\n      swap3\n      swap2\n      pop\n      pop\n      jump\t// out\n        /* \"#utility.yul\":152:481   */\n    tag_10:\n        /* \"#utility.yul\":211:217   */\n      0x00\n        /* \"#utility.yul\":260:262   */\n      0x20\n        /* \"#utility.yul\":248:257   */\n      dup3\n        /* \"#utility.yul\":239:246   */\n      dup5\n        /* \"#utility.yul\":235:258   */\n      sub\n        /* \"#utility.yul\":231:263   */\n      slt\n        /* \"#utility.yul\":228:347   */\n      iszero\n      tag_58\n      jumpi\n        /* \"#utility.yul\":266:345   */\n      tag_59\n      tag_60\n      jump\t// in\n    tag_59:\n        /* \"#utility.yul\":228:347   */\n    tag_58:\n        /* \"#utility.yul\":386:387   */\n      0x00\n        /* \"#utility.yul\":411:464   */\n      tag_61\n        /* \"#utility.yul\":456:463   */\n      dup5\n        /* \"#utility.yul\":447:453   */\n      dup3\n        /* \"#utility.yul\":436:445   */\n      dup6\n        /* \"#utility.yul\":432:454   */\n      add\n        /* \"#utility.yul\":411:464   */\n      tag_53\n      jump\t// in\n    tag_61:\n        /* \"#utility.yul\":401:464   */\n      swap2\n      pop\n        /* \"#utility.yul\":357:474   */\n      pop\n        /* \"#utility.yul\":152:481   */\n      swap3\n      swap2\n      pop\n      pop\n      jump\t// out\n        /* \"#utility.yul\":487:596   */\n    tag_62:\n        /* \"#utility.yul\":568:589   */\n      tag_64\n        /* \"#utility.yul\":583:588   */\n      dup2\n        /* \"#utility.yul\":568:589   */\n      tag_65\n      jump\t// in\n    tag_64:\n        /* \"#utility.yul\":563:566   */\n      dup3\n        /* \"#utility.yul\":556:590   */\n      mstore\n        /* \"#utility.yul\":487:596   */\n      pop\n      pop\n      jump\t// out\n        /* \"#utility.yul\":602:812   */\n    tag_13:\n        /* \"#utility.yul\":689:693   */\n      0x00\n        /* \"#utility.yul\":727:729   */\n      0x20\n        /* \"#utility.yul\":716:725   */\n      dup3\n        /* \"#utility.yul\":712:730   */\n      add\n        /* \"#utility.yul\":704:730   */\n      swap1\n      pop\n        /* \"#utility.yul\":740:805   */\n      tag_67\n        /* \"#utility.yul\":802:803   */\n      0x00\n        /* \"#utility.yul\":791:800   */\n      dup4\n        /* \"#utility.yul\":787:804   */\n      add\n        /* \"#utility.yul\":778:784   */\n      dup5\n        /* \"#utility.yul\":740:805   */\n      tag_62\n      jump\t// in\n    tag_67:\n        /* \"#utility.yul\":602:812   */\n      swap3\n      swap2\n      pop\n      pop\n      jump\t// out\n        /* \"#utility.yul\":899:1204   */\n    tag_51:\n        /* \"#utility.yul\":939:942   */\n      0x00\n        /* \"#utility.yul\":958:978   */\n      tag_71\n        /* \"#utility.yul\":976:977   */\n      dup3\n        /* \"#utility.yul\":958:978   */\n      tag_72\n      jump\t// in\n    tag_71:\n        /* \"#utility.yul\":953:978   */\n      swap2\n      pop\n        /* \"#utility.yul\":992:1012   */\n      tag_73\n        /* \"#utility.yul\":1010:1011   */\n      dup4\n        /* \"#utility.yul\":992:1012   */\n      tag_72\n      jump\t// in\n    tag_73:\n        /* \"#utility.yul\":987:1012   */\n      swap3\n      pop\n        /* \"#utility.yul\":1146:1147   */\n      dup3\n        /* \"#utility.yul\":1078:1144   */\n      0xffffffffffffffffffffffffffffffffffffffffffffffffffffffffffffffff\n        /* \"#utility.yul\":1074:1148   */\n      sub\n        /* \"#utility.yul\":1071:1072   */\n      dup3\n        /* \"#utility.yul\":1068:1149   */\n      gt\n        /* \"#utility.yul\":1065:1172   */\n      iszero\n      tag_74\n      jumpi\n        /* \"#utility.yul\":1152:1170   */\n      tag_75\n      tag_76\n      jump\t// in\n    tag_75:\n        /* \"#utility.yul\":1065:1172   */\n    tag_74:\n        /* \"#utility.yul\":1196:1197   */\n      dup3\n        /* \"#utility.yul\":1193:1194   */\n      dup3\n        /* \"#utility.yul\":1189:1198   */\n      add\n        /* \"#utility.yul\":1182:1198   */\n      swap1\n      pop\n        /* \"#utility.yul\":899:1204   */\n      swap3\n      swap2\n      pop\n      pop\n      jump\t// out\n        /* \"#utility.yul\":1210:1401   */\n    tag_42:\n        /* \"#utility.yul\":1250:1254   */\n      0x00\n        /* \"#utility.yul\":1270:1290   */\n      tag_78\n        /* \"#utility.yul\":1288:1289   */\n      dup3\n        /* \"#utility.yul\":1270:1290   */\n      tag_72\n      jump\t// in\n    tag_78:\n        /* \"#utility.yul\":1265:1290   */\n      swap2\n      pop\n        /* \"#utility.yul\":1304:1324   */\n      tag_79\n        /* \"#utility.yul\":1322:1323   */\n      dup4\n        /* \"#utility.yul\":1304:1324   */\n      tag_72\n      jump\t// in\n    tag_79:\n        /* \"#utility.yul\":1299:1324   */\n      swap3\n      pop\n        /* \"#utility.yul\":1343:1344   */\n      dup3\n        /* \"#utility.yul\":1340:1341   */\n      dup3\n        /* \"#utility.yul\":1337:1345   */\n      lt\n        /* \"#utility.yul\":1334:1368   */\n      iszero\n      tag_80\n      jumpi\n        /* \"#utility.yul\":1348:1366   */\n      tag_81\n      tag_76\n      jump\t// in\n    tag_81:\n        /* \"#utility.yul\":1334:1368   */\n    tag_80:\n        /* \"#utility.yul\":1393:1394   */\n      dup3\n        /* \"#utility.yul\":1390:1391   */\n      dup3\n        /* \"#utility.yul\":1386:1395   */\n      sub\n        /* \"#utility.yul\":1378:1395   */\n      swap1\n      pop\n        /* \"#utility.yul\":1210:1401   */\n      swap3\n      swap2\n      pop\n      pop\n      jump\t// out\n        /* \"#utility.yul\":1407:1503   */\n    tag_82:\n        /* \"#utility.yul\":1444:1451   */\n      0x00\n        /* \"#utility.yul\":1473:1497   */\n      tag_84\n        /* \"#utility.yul\":1491:1496   */\n      dup3\n        /* \"#utility.yul\":1473:1497   */\n      tag_85\n      jump\t// in\n    tag_84:\n        /* \"#utility.yul\":1462:1497   */\n      swap1\n      pop\n        /* \"#utility.yul\":1407:1503   */\n      swap2\n      swap1\n      pop\n      jump\t// out\n        /* \"#utility.yul\":1509:1599   */\n    tag_65:\n        /* \"#utility.yul\":1543:1550   */\n      0x00\n        /* \"#utility.yul\":1586:1591   */\n      dup2\n        /* \"#utility.yul\":1579:1592   */\n      iszero\n        /* \"#utility.yul\":1572:1593   */\n      iszero\n        /* \"#utility.yul\":1561:1593   */\n      swap1\n      pop\n        /* \"#utility.yul\":1509:1599   */\n      swap2\n      swap1\n      pop\n      jump\t// out\n        /* \"#utility.yul\":1605:1731   */\n    tag_85:\n        /* \"#utility.yul\":1642:1649   */\n      0x00\n        /* \"#utility.yul\":1682:1724   */\n      0xffffffffffffffffffffffffffffffffffffffff\n        /* \"#utility.yul\":1675:1680   */\n      dup3\n        /* \"#utility.yul\":1671:1725   */\n      and\n        /* \"#utility.yul\":1660:1725   */\n      swap1\n      pop\n        /* \"#utility.yul\":1605:1731   */\n      swap2\n      swap1\n      pop\n      jump\t// out\n        /* \"#utility.yul\":1737:1814   */\n    tag_72:\n        /* \"#utility.yul\":1774:1781   */\n      0x00\n        /* \"#utility.yul\":1803:1808   */\n      dup2\n        /* \"#utility.yul\":1792:1808   */\n      swap1\n      pop\n        /* \"#utility.yul\":1737:1814   */\n      swap2\n      swap1\n      pop\n      jump\t// out\n        /* \"#utility.yul\":1820:2000   */\n    tag_76:\n        /* \"#utility.yul\":1868:1945   */\n      0x4e487b7100000000000000000000000000000000000000000000000000000000\n        /* \"#utility.yul\":1865:1866   */\n      0x00\n        /* \"#utility.yul\":1858:1946   */\n      mstore\n        /* \"#utility.yul\":1965:1969   */\n      0x11\n        /* \"#utility.yul\":1962:1963   */\n      0x04\n        /* \"#utility.yul\":1955:1970   */\n      mstore\n        /* \"#utility.yul\":1989:1993   */\n      0x24\n        /* \"#utility.yul\":1986:1987   */\n      0x00\n        /* \"#utility.yul\":1979:1994   */\n      revert\n        /* \"#utility.yul\":2129:2246   */\n    tag_60:\n        /* \"#utility.yul\":2238:2239   */\n      0x00\n        /* \"#utility.yul\":2235:2236   */\n      dup1\n        /* \"#utility.yul\":2228:2240   */\n      revert\n        /* \"#utility.yul\":2252:2374   */\n    tag_56:\n        /* \"#utility.yul\":2325:2349   */\n      tag_94\n        /* \"#utility.yul\":2343:2348   */\n      dup2\n        /* \"#utility.yul\":2325:2349   */\n      tag_82\n      jump\t// in\n    tag_94:\n        /* \"#utility.yul\":2318:2323   */\n      dup2\n        /* \"#utility.yul\":2315:2350   */\n      eq\n        /* \"#utility.yul\":2305:2368   */\n      tag_95\n      jumpi\n        /* \"#utility.yul\":2364:2365   */\n      0x00\n        /* \"#utility.yul\":2361:2362   */\n      dup1\n        /* \"#utility.yul\":2354:2366   */\n      revert\n        /* \"#utility.yul\":2305:2368   */\n    tag_95:\n        /* \"#utility.yul\":2252:2374   */\n      pop\n      jump\t// out\n\n    auxdata: 0xa26469706673582212201059fc0b197489b3e7aa42e0492e52aa7d125539ae5263525107d72f0800e3f264736f6c63430008070033\n}\n",
				"bytecode": {
					"linkReferences": {},
					"object": "608060405234801561001057600080fd5b5061059c806100206000396000f3fe608060405234801561001057600080fd5b50600436106100415760003560e01c80630e23e14114610046578063280f6efa14610050578063b343ab4614610080575b600080fd5b61004e61009c565b005b61006a600480360381019061006591906103f2565b6100a7565b604051610077919061042e565b60405180910390f35b61009a600480360381019061009591906103f2565b6100c4565b005b6100a5336100d0565b565b60006100bd82600061012a90919063ffffffff16565b9050919050565b6100cd816101bc565b50565b6100e481600061022d90919063ffffffff16565b8073ffffffffffffffffffffffffffffffffffffffff167fdc4358df642c960c40aac6131d0b28b29bc9420c5ef3ab89bc29388a5246532b60405160405180910390a250565b60008073ffffffffffffffffffffffffffffffffffffffff168273ffffffffffffffffffffffffffffffffffffffff16141561016557600080fd5b8260000160008373ffffffffffffffffffffffffffffffffffffffff1673ffffffffffffffffffffffffffffffffffffffff16815260200190815260200160002060009054906101000a900460ff16905092915050565b600015156101ca60006102f4565b1515141561022a576101e681600061031590919063ffffffff16565b8073ffffffffffffffffffffffffffffffffffffffff167f86cd986707fc630f5d12983d5e40b321df1017d8ed31453b5fc24b2aa558719f60405160405180910390a25b50565b600073ffffffffffffffffffffffffffffffffffffffff168173ffffffffffffffffffffffffffffffffffffffff16141561026757600080fd5b610271828261012a565b61027a57600080fd5b60008260000160008373ffffffffffffffffffffffffffffffffffffffff1673ffffffffffffffffffffffffffffffffffffffff16815260200190815260200160002060006101000a81548160ff02191690831515021790555060018260010160008282546102e9919061049f565b925050819055505050565b6000808260010154141561030b5760009050610310565b600190505b919050565b600073ffffffffffffffffffffffffffffffffffffffff168173ffffffffffffffffffffffffffffffffffffffff16141561034f57600080fd5b610359828261012a565b1561036357600080fd5b60018260000160008373ffffffffffffffffffffffffffffffffffffffff1673ffffffffffffffffffffffffffffffffffffffff16815260200190815260200160002060006101000a81548160ff02191690831515021790555060018260010160008282546103d29190610449565b925050819055505050565b6000813590506103ec8161054f565b92915050565b6000602082840312156104085761040761054a565b5b6000610416848285016103dd565b91505092915050565b610428816104e5565b82525050565b6000602082019050610443600083018461041f565b92915050565b600061045482610511565b915061045f83610511565b9250827fffffffffffffffffffffffffffffffffffffffffffffffffffffffffffffffff038211156104945761049361051b565b5b828201905092915050565b60006104aa82610511565b91506104b583610511565b9250828210156104c8576104c761051b565b5b828203905092915050565b60006104de826104f1565b9050919050565b60008115159050919050565b600073ffffffffffffffffffffffffffffffffffffffff82169050919050565b6000819050919050565b7f4e487b7100000000000000000000000000000000000000000000000000000000600052601160045260246000fd5b600080fd5b610558816104d3565b811461056357600080fd5b5056fea26469706673582212201059fc0b197489b3e7aa42e0492e52aa7d125539ae5263525107d72f0800e3f264736f6c63430008070033",
					"opcodes": "PUSH1 0x80 PUSH1 0x40 MSTORE CALLVALUE DUP1 ISZERO PUSH2 0x10 JUMPI PUSH1 0x0 DUP1 REVERT JUMPDEST POP PUSH2 0x59C DUP1 PUSH2 0x20 PUSH1 0x0 CODECOPY PUSH1 0x0 RETURN INVALID PUSH1 0x80 PUSH1 0x40 MSTORE CALLVALUE DUP1 ISZERO PUSH2 0x10 JUMPI PUSH1 0x0 DUP1 REVERT JUMPDEST POP PUSH1 0x4 CALLDATASIZE LT PUSH2 0x41 JUMPI PUSH1 0x0 CALLDATALOAD PUSH1 0xE0 SHR DUP1 PUSH4 0xE23E141 EQ PUSH2 0x46 JUMPI DUP1 PUSH4 0x280F6EFA EQ PUSH2 0x50 JUMPI DUP1 PUSH4 0xB343AB46 EQ PUSH2 0x80 JUMPI JUMPDEST PUSH1 0x0 DUP1 REVERT JUMPDEST PUSH2 0x4E PUSH2 0x9C JUMP JUMPDEST STOP JUMPDEST PUSH2 0x6A PUSH1 0x4 DUP1 CALLDATASIZE SUB DUP2 ADD SWAP1 PUSH2 0x65 SWAP2 SWAP1 PUSH2 0x3F2 JUMP JUMPDEST PUSH2 0xA7 JUMP JUMPDEST PUSH1 0x40 MLOAD PUSH2 0x77 SWAP2 SWAP1 PUSH2 0x42E JUMP JUMPDEST PUSH1 0x40 MLOAD DUP1 SWAP2 SUB SWAP1 RETURN JUMPDEST PUSH2 0x9A PUSH1 0x4 DUP1 CALLDATASIZE SUB DUP2 ADD SWAP1 PUSH2 0x95 SWAP2 SWAP1 PUSH2 0x3F2 JUMP JUMPDEST PUSH2 0xC4 JUMP JUMPDEST STOP JUMPDEST PUSH2 0xA5 CALLER PUSH2 0xD0 JUMP JUMPDEST JUMP JUMPDEST PUSH1 0x0 PUSH2 0xBD DUP3 PUSH1 0x0 PUSH2 0x12A SWAP1 SWAP2 SWAP1 PUSH4 0xFFFFFFFF AND JUMP JUMPDEST SWAP1 POP SWAP2 SWAP1 POP JUMP JUMPDEST PUSH2 0xCD DUP2 PUSH2 0x1BC JUMP JUMPDEST POP JUMP JUMPDEST PUSH2 0xE4 DUP2 PUSH1 0x0 PUSH2 0x22D SWAP1 SWAP2 SWAP1 PUSH4 0xFFFFFFFF AND JUMP JUMPDEST DUP1 PUSH20 0xFFFFFFFFFFFFFFFFFFFFFFFFFFFFFFFFFFFFFFFF AND PUSH32 0xDC4358DF642C960C40AAC6131D0B28B29BC9420C5EF3AB89BC29388A5246532B PUSH1 0x40 MLOAD PUSH1 0x40 MLOAD DUP1 SWAP2 SUB SWAP1 LOG2 POP JUMP JUMPDEST PUSH1 0x0 DUP1 PUSH20 0xFFFFFFFFFFFFFFFFFFFFFFFFFFFFFFFFFFFFFFFF AND DUP3 PUSH20 0xFFFFFFFFFFFFFFFFFFFFFFFFFFFFFFFFFFFFFFFF AND EQ ISZERO PUSH2 0x165 JUMPI PUSH1 0x0 DUP1 REVERT JUMPDEST DUP3 PUSH1 0x0 ADD PUSH1 0x0 DUP4 PUSH20 0xFFFFFFFFFFFFFFFFFFFFFFFFFFFFFFFFFFFFFFFF AND PUSH20 0xFFFFFFFFFFFFFFFFFFFFFFFFFFFFFFFFFFFFFFFF AND DUP2 MSTORE PUSH1 0x20 ADD SWAP1 DUP2 MSTORE PUSH1 0x20 ADD PUSH1 0x0 KECCAK256 PUSH1 0x0 SWAP1 SLOAD SWAP1 PUSH2 0x100 EXP SWAP1 DIV PUSH1 0xFF AND SWAP1 POP SWAP3 SWAP2 POP POP JUMP JUMPDEST PUSH1 0x0 ISZERO ISZERO PUSH2 0x1CA PUSH1 0x0 PUSH2 0x2F4 JUMP JUMPDEST ISZERO ISZERO EQ ISZERO PUSH2 0x22A JUMPI PUSH2 0x1E6 DUP2 PUSH1 0x0 PUSH2 0x315 SWAP1 SWAP2 SWAP1 PUSH4 0xFFFFFFFF AND JUMP JUMPDEST DUP1 PUSH20 0xFFFFFFFFFFFFFFFFFFFFFFFFFFFFFFFFFFFFFFFF AND PUSH32 0x86CD986707FC630F5D12983D5E40B321DF1017D8ED31453B5FC24B2AA558719F PUSH1 0x40 MLOAD PUSH1 0x40 MLOAD DUP1 SWAP2 SUB SWAP1 LOG2 JUMPDEST POP JUMP JUMPDEST PUSH1 0x0 PUSH20 0xFFFFFFFFFFFFFFFFFFFFFFFFFFFFFFFFFFFFFFFF AND DUP2 PUSH20 0xFFFFFFFFFFFFFFFFFFFFFFFFFFFFFFFFFFFFFFFF AND EQ ISZERO PUSH2 0x267 JUMPI PUSH1 0x0 DUP1 REVERT JUMPDEST PUSH2 0x271 DUP3 DUP3 PUSH2 0x12A JUMP JUMPDEST PUSH2 0x27A JUMPI PUSH1 0x0 DUP1 REVERT JUMPDEST PUSH1 0x0 DUP3 PUSH1 0x0 ADD PUSH1 0x0 DUP4 PUSH20 0xFFFFFFFFFFFFFFFFFFFFFFFFFFFFFFFFFFFFFFFF AND PUSH20 0xFFFFFFFFFFFFFFFFFFFFFFFFFFFFFFFFFFFFFFFF AND DUP2 MSTORE PUSH1 0x20 ADD SWAP1 DUP2 MSTORE PUSH1 0x20 ADD PUSH1 0x0 KECCAK256 PUSH1 0x0 PUSH2 0x100 EXP DUP2 SLOAD DUP2 PUSH1 0xFF MUL NOT AND SWAP1 DUP4 ISZERO ISZERO MUL OR SWAP1 SSTORE POP PUSH1 0x1 DUP3 PUSH1 0x1 ADD PUSH1 0x0 DUP3 DUP3 SLOAD PUSH2 0x2E9 SWAP2 SWAP1 PUSH2 0x49F JUMP JUMPDEST SWAP3 POP POP DUP2 SWAP1 SSTORE POP POP POP JUMP JUMPDEST PUSH1 0x0 DUP1 DUP3 PUSH1 0x1 ADD SLOAD EQ ISZERO PUSH2 0x30B JUMPI PUSH1 0x0 SWAP1 POP PUSH2 0x310 JUMP JUMPDEST PUSH1 0x1 SWAP1 POP JUMPDEST SWAP2 SWAP1 POP JUMP JUMPDEST PUSH1 0x0 PUSH20 0xFFFFFFFFFFFFFFFFFFFFFFFFFFFFFFFFFFFFFFFF AND DUP2 PUSH20 0xFFFFFFFFFFFFFFFFFFFFFFFFFFFFFFFFFFFFFFFF AND EQ ISZERO PUSH2 0x34F JUMPI PUSH1 0x0 DUP1 REVERT JUMPDEST PUSH2 0x359 DUP3 DUP3 PUSH2 0x12A JUMP JUMPDEST ISZERO PUSH2 0x363 JUMPI PUSH1 0x0 DUP1 REVERT JUMPDEST PUSH1 0x1 DUP3 PUSH1 0x0 ADD PUSH1 0x0 DUP4 PUSH20 0xFFFFFFFFFFFFFFFFFFFFFFFFFFFFFFFFFFFFFFFF AND PUSH20 0xFFFFFFFFFFFFFFFFFFFFFFFFFFFFFFFFFFFFFFFF AND DUP2 MSTORE PUSH1 0x20 ADD SWAP1 DUP2 MSTORE PUSH1 0x20 ADD PUSH1 0x0 KECCAK256 PUSH1 0x0 PUSH2 0x100 EXP DUP2 SLOAD DUP2 PUSH1 0xFF MUL NOT AND SWAP1 DUP4 ISZERO ISZERO MUL OR SWAP1 SSTORE POP PUSH1 0x1 DUP3 PUSH1 0x1 ADD PUSH1 0x0 DUP3 DUP3 SLOAD PUSH2 0x3D2 SWAP2 SWAP1 PUSH2 0x449 JUMP JUMPDEST SWAP3 POP POP DUP2 SWAP1 SSTORE POP POP POP JUMP JUMPDEST PUSH1 0x0 DUP2 CALLDATALOAD SWAP1 POP PUSH2 0x3EC DUP2 PUSH2 0x54F JUMP JUMPDEST SWAP3 SWAP2 POP POP JUMP JUMPDEST PUSH1 0x0 PUSH1 0x20 DUP3 DUP5 SUB SLT ISZERO PUSH2 0x408 JUMPI PUSH2 0x407 PUSH2 0x54A JUMP JUMPDEST JUMPDEST PUSH1 0x0 PUSH2 0x416 DUP5 DUP3 DUP6 ADD PUSH2 0x3DD JUMP JUMPDEST SWAP2 POP POP SWAP3 SWAP2 POP POP JUMP JUMPDEST PUSH2 0x428 DUP2 PUSH2 0x4E5 JUMP JUMPDEST DUP3 MSTORE POP POP JUMP JUMPDEST PUSH1 0x0 PUSH1 0x20 DUP3 ADD SWAP1 POP PUSH2 0x443 PUSH1 0x0 DUP4 ADD DUP5 PUSH2 0x41F JUMP JUMPDEST SWAP3 SWAP2 POP POP JUMP JUMPDEST PUSH1 0x0 PUSH2 0x454 DUP3 PUSH2 0x511 JUMP JUMPDEST SWAP2 POP PUSH2 0x45F DUP4 PUSH2 0x511 JUMP JUMPDEST SWAP3 POP DUP3 PUSH32 0xFFFFFFFFFFFFFFFFFFFFFFFFFFFFFFFFFFFFFFFFFFFFFFFFFFFFFFFFFFFFFFFF SUB DUP3 GT ISZERO PUSH2 0x494 JUMPI PUSH2 0x493 PUSH2 0x51B JUMP JUMPDEST JUMPDEST DUP3 DUP3 ADD SWAP1 POP SWAP3 SWAP2 POP POP JUMP JUMPDEST PUSH1 0x0 PUSH2 0x4AA DUP3 PUSH2 0x511 JUMP JUMPDEST SWAP2 POP PUSH2 0x4B5 DUP4 PUSH2 0x511 JUMP JUMPDEST SWAP3 POP DUP3 DUP3 LT ISZERO PUSH2 0x4C8 JUMPI PUSH2 0x4C7 PUSH2 0x51B JUMP JUMPDEST JUMPDEST DUP3 DUP3 SUB SWAP1 POP SWAP3 SWAP2 POP POP JUMP JUMPDEST PUSH1 0x0 PUSH2 0x4DE DUP3 PUSH2 0x4F1 JUMP JUMPDEST SWAP1 POP SWAP2 SWAP1 POP JUMP JUMPDEST PUSH1 0x0 DUP2 ISZERO ISZERO SWAP1 POP SWAP2 SWAP1 POP JUMP JUMPDEST PUSH1 0x0 PUSH20 0xFFFFFFFFFFFFFFFFFFFFFFFFFFFFFFFFFFFFFFFF DUP3 AND SWAP1 POP SWAP2 SWAP1 POP JUMP JUMPDEST PUSH1 0x0 DUP2 SWAP1 POP SWAP2 SWAP1 POP JUMP JUMPDEST PUSH32 0x4E487B7100000000000000000000000000000000000000000000000000000000 PUSH1 0x0 MSTORE PUSH1 0x11 PUSH1 0x4 MSTORE PUSH1 0x24 PUSH1 0x0 REVERT JUMPDEST PUSH1 0x0 DUP1 REVERT JUMPDEST PUSH2 0x558 DUP2 PUSH2 0x4D3 JUMP JUMPDEST DUP2 EQ PUSH2 0x563 JUMPI PUSH1 0x0 DUP1 REVERT JUMPDEST POP JUMP INVALID LOG2 PUSH5 0x6970667358 0x22 SLT KECCAK256 LT MSIZE 0xFC SIGNEXTEND NOT PUSH21 0x89B3E7AA42E0492E52AA7D125539AE5263525107D7 0x2F ADDMOD STOP 0xE3 CALLCODE PUSH5 0x736F6C6343 STOP ADDMOD SMOD STOP CALLER "
				},
				"gasEstimates": {
					"creation": {
						"codeDepositCost": "287200",
						"executionCost": "324",
						"totalCost": "287524"
					},
					"external": {
						"addCentral(address)": "infinite",
						"isCentral(address)": "infinite",
						"renounceCentral()": "infinite"
					},
					"internal": {
						"_addCentral(address)": "infinite",
						"_removeCentral(address)": "infinite"
					}
				},
				"methodIdentifiers": {
					"addCentral(address)": "b343ab46",
					"isCentral(address)": "280f6efa",
					"renounceCentral()": "0e23e141"
				}
			},
			"storageLayout": {
				"storage": [
					{
						"astId": 17,
						"contract": "contracts/CentralRole.sol:CentralRole",
						"label": "central",
						"offset": 0,
						"slot": "0",
						"type": "t_struct(Role)109_storage"
					}
				],
				"types": {
					"t_address": {
						"encoding": "inplace",
						"label": "address",
						"numberOfBytes": "20"
					},
					"t_bool": {
						"encoding": "inplace",
						"label": "bool",
						"numberOfBytes": "1"
					},
					"t_mapping(t_address,t_bool)": {
						"encoding": "mapping",
						"key": "t_address",
						"label": "mapping(address => bool)",
						"numberOfBytes": "32",
						"value": "t_bool"
					},
					"t_struct(Role)109_storage": {
						"encoding": "inplace",
						"label": "struct Roles.Role",
						"members": [
							{
								"astId": 106,
								"contract": "contracts/CentralRole.sol:CentralRole",
								"label": "bearer",
								"offset": 0,
								"slot": "0",
								"type": "t_mapping(t_address,t_bool)"
							},
							{
								"astId": 108,
								"contract": "contracts/CentralRole.sol:CentralRole",
								"label": "roleCount",
								"offset": 0,
								"slot": "1",
								"type": "t_uint256"
							}
						],
						"numberOfBytes": "64"
					},
					"t_uint256": {
						"encoding": "inplace",
						"label": "uint256",
						"numberOfBytes": "32"
					}
				}
			},
			"userdoc": {
				"kind": "user",
				"methods": {},
				"version": 1
			}
		}
	}
}