{
	"contracts/CarRole.sol": {
		"CarRole": {
			"abi": [
				{
					"anonymous": false,
					"inputs": [
						{
							"indexed": true,
							"internalType": "address",
							"name": "account",
							"type": "address"
						}
					],
					"name": "CarAdded",
					"type": "event"
				},
				{
					"anonymous": false,
					"inputs": [
						{
							"indexed": true,
							"internalType": "address",
							"name": "account",
							"type": "address"
						}
					],
					"name": "CarRemoved",
					"type": "event"
				},
				{
					"inputs": [
						{
							"internalType": "address",
							"name": "account",
							"type": "address"
						}
					],
					"name": "addCar",
					"outputs": [],
					"stateMutability": "nonpayable",
					"type": "function"
				},
				{
					"inputs": [
						{
							"internalType": "address",
							"name": "account",
							"type": "address"
						}
					],
					"name": "isCar",
					"outputs": [
						{
							"internalType": "bool",
							"name": "",
							"type": "bool"
						}
					],
					"stateMutability": "view",
					"type": "function"
				},
				{
					"inputs": [],
					"name": "renounceCar",
					"outputs": [],
					"stateMutability": "nonpayable",
					"type": "function"
				}
			],
			"devdoc": {
				"kind": "dev",
				"methods": {},
				"version": 1
			},
			"evm": {
				"assembly": "    /* \"contracts/CarRole.sol\":93:792  contract CarRole {... */\n  mstore(0x40, 0x80)\n  callvalue\n  dup1\n  iszero\n  tag_1\n  jumpi\n  0x00\n  dup1\n  revert\ntag_1:\n  pop\n  dataSize(sub_0)\n  dup1\n  dataOffset(sub_0)\n  0x00\n  codecopy\n  0x00\n  return\nstop\n\nsub_0: assembly {\n        /* \"contracts/CarRole.sol\":93:792  contract CarRole {... */\n      mstore(0x40, 0x80)\n      callvalue\n      dup1\n      iszero\n      tag_1\n      jumpi\n      0x00\n      dup1\n      revert\n    tag_1:\n      pop\n      jumpi(tag_2, lt(calldatasize, 0x04))\n      shr(0xe0, calldataload(0x00))\n      dup1\n      0x102de9e5\n      eq\n      tag_3\n      jumpi\n      dup1\n      0x4bd1d560\n      eq\n      tag_4\n      jumpi\n      dup1\n      0xf3844bca\n      eq\n      tag_5\n      jumpi\n    tag_2:\n      0x00\n      dup1\n      revert\n        /* \"contracts/CarRole.sol\":428:504  function addCar(address account) public onlyCars {... */\n    tag_3:\n      tag_6\n      0x04\n      dup1\n      calldatasize\n      sub\n      dup2\n      add\n      swap1\n      tag_7\n      swap2\n      swap1\n      tag_8\n      jump\t// in\n    tag_7:\n      tag_9\n      jump\t// in\n    tag_6:\n      stop\n        /* \"contracts/CarRole.sol\":330:424  function isCar(address account) public view returns (bool) {... */\n    tag_4:\n      tag_10\n      0x04\n      dup1\n      calldatasize\n      sub\n      dup2\n      add\n      swap1\n      tag_11\n      swap2\n      swap1\n      tag_8\n      jump\t// in\n    tag_11:\n      tag_12\n      jump\t// in\n    tag_10:\n      mload(0x40)\n      tag_13\n      swap2\n      swap1\n      tag_14\n      jump\t// in\n    tag_13:\n      mload(0x40)\n      dup1\n      swap2\n      sub\n      swap1\n      return\n        /* \"contracts/CarRole.sol\":508:571  function renounceCar() public {... */\n    tag_5:\n      tag_15\n      tag_16\n      jump\t// in\n    tag_15:\n      stop\n        /* \"contracts/CarRole.sol\":428:504  function addCar(address account) public onlyCars {... */\n    tag_9:\n        /* \"contracts/CarRole.sol\":296:313  isCar(msg.sender) */\n      tag_18\n        /* \"contracts/CarRole.sol\":302:312  msg.sender */\n      caller\n        /* \"contracts/CarRole.sol\":296:301  isCar */\n      tag_12\n        /* \"contracts/CarRole.sol\":296:313  isCar(msg.sender) */\n      jump\t// in\n    tag_18:\n        /* \"contracts/CarRole.sol\":288:314  require(isCar(msg.sender)) */\n      tag_19\n      jumpi\n      0x00\n      dup1\n      revert\n    tag_19:\n        /* \"contracts/CarRole.sol\":483:499  _addCar(account) */\n      tag_21\n        /* \"contracts/CarRole.sol\":491:498  account */\n      dup2\n        /* \"contracts/CarRole.sol\":483:490  _addCar */\n      tag_22\n        /* \"contracts/CarRole.sol\":483:499  _addCar(account) */\n      jump\t// in\n    tag_21:\n        /* \"contracts/CarRole.sol\":428:504  function addCar(address account) public onlyCars {... */\n      pop\n      jump\t// out\n        /* \"contracts/CarRole.sol\":330:424  function isCar(address account) public view returns (bool) {... */\n    tag_12:\n        /* \"contracts/CarRole.sol\":383:387  bool */\n      0x00\n        /* \"contracts/CarRole.sol\":402:419  cars.has(account) */\n      tag_24\n        /* \"contracts/CarRole.sol\":411:418  account */\n      dup3\n        /* \"contracts/CarRole.sol\":402:406  cars */\n      0x00\n        /* \"contracts/CarRole.sol\":402:410  cars.has */\n      tag_25\n      swap1\n        /* \"contracts/CarRole.sol\":402:419  cars.has(account) */\n      swap2\n      swap1\n      0xffffffff\n      and\n      jump\t// in\n    tag_24:\n        /* \"contracts/CarRole.sol\":395:419  return cars.has(account) */\n      swap1\n      pop\n        /* \"contracts/CarRole.sol\":330:424  function isCar(address account) public view returns (bool) {... */\n      swap2\n      swap1\n      pop\n      jump\t// out\n        /* \"contracts/CarRole.sol\":508:571  function renounceCar() public {... */\n    tag_16:\n        /* \"contracts/CarRole.sol\":544:566  _removeCar(msg.sender) */\n      tag_27\n        /* \"contracts/CarRole.sol\":555:565  msg.sender */\n      caller\n        /* \"contracts/CarRole.sol\":544:554  _removeCar */\n      tag_28\n        /* \"contracts/CarRole.sol\":544:566  _removeCar(msg.sender) */\n      jump\t// in\n    tag_27:\n        /* \"contracts/CarRole.sol\":508:571  function renounceCar() public {... */\n      jump\t// out\n        /* \"contracts/CarRole.sol\":575:679  function _addCar(address account) internal {... */\n    tag_22:\n        /* \"contracts/CarRole.sol\":624:641  cars.add(account) */\n      tag_30\n        /* \"contracts/CarRole.sol\":633:640  account */\n      dup2\n        /* \"contracts/CarRole.sol\":624:628  cars */\n      0x00\n        /* \"contracts/CarRole.sol\":624:632  cars.add */\n      tag_31\n      swap1\n        /* \"contracts/CarRole.sol\":624:641  cars.add(account) */\n      swap2\n      swap1\n      0xffffffff\n      and\n      jump\t// in\n    tag_30:\n        /* \"contracts/CarRole.sol\":661:668  account */\n      dup1\n        /* \"contracts/CarRole.sol\":652:669  CarAdded(account) */\n      0xffffffffffffffffffffffffffffffffffffffff\n      and\n      0x596f84065eb55bc6e20c50254558a4800f798e542d362998a6b7f7680b6f91ee\n      mload(0x40)\n      mload(0x40)\n      dup1\n      swap2\n      sub\n      swap1\n      log2\n        /* \"contracts/CarRole.sol\":575:679  function _addCar(address account) internal {... */\n      pop\n      jump\t// out\n        /* \"contracts/Roles.sol\":756:922  function has(Role storage role, address account)... */\n    tag_25:\n        /* \"contracts/Roles.sol\":840:844  bool */\n      0x00\n        /* \"contracts/Roles.sol\":881:882  0 */\n      dup1\n        /* \"contracts/Roles.sol\":862:883  account != address(0) */\n      0xffffffffffffffffffffffffffffffffffffffff\n      and\n        /* \"contracts/Roles.sol\":862:869  account */\n      dup3\n        /* \"contracts/Roles.sol\":862:883  account != address(0) */\n      0xffffffffffffffffffffffffffffffffffffffff\n      and\n      eq\n      iszero\n        /* \"contracts/Roles.sol\":854:884  require(account != address(0)) */\n      tag_33\n      jumpi\n      0x00\n      dup1\n      revert\n    tag_33:\n        /* \"contracts/Roles.sol\":897:901  role */\n      dup3\n        /* \"contracts/Roles.sol\":897:908  role.bearer */\n      0x00\n      add\n        /* \"contracts/Roles.sol\":897:917  role.bearer[account] */\n      0x00\n        /* \"contracts/Roles.sol\":909:916  account */\n      dup4\n        /* \"contracts/Roles.sol\":897:917  role.bearer[account] */\n      0xffffffffffffffffffffffffffffffffffffffff\n      and\n      0xffffffffffffffffffffffffffffffffffffffff\n      and\n      dup2\n      mstore\n      0x20\n      add\n      swap1\n      dup2\n      mstore\n      0x20\n      add\n      0x00\n      keccak256\n      0x00\n      swap1\n      sload\n      swap1\n      0x0100\n      exp\n      swap1\n      div\n      0xff\n      and\n        /* \"contracts/Roles.sol\":890:917  return role.bearer[account] */\n      swap1\n      pop\n        /* \"contracts/Roles.sol\":756:922  function has(Role storage role, address account)... */\n      swap3\n      swap2\n      pop\n      pop\n      jump\t// out\n        /* \"contracts/CarRole.sol\":683:790  function _removeCar(address account) internal {... */\n    tag_28:\n        /* \"contracts/CarRole.sol\":735:755  cars.remove(account) */\n      tag_35\n        /* \"contracts/CarRole.sol\":747:754  account */\n      dup2\n        /* \"contracts/CarRole.sol\":735:739  cars */\n      0x00\n        /* \"contracts/CarRole.sol\":735:746  cars.remove */\n      tag_36\n      swap1\n        /* \"contracts/CarRole.sol\":735:755  cars.remove(account) */\n      swap2\n      swap1\n      0xffffffff\n      and\n      jump\t// in\n    tag_35:\n        /* \"contracts/CarRole.sol\":777:784  account */\n      dup1\n        /* \"contracts/CarRole.sol\":766:785  CarRemoved(account) */\n      0xffffffffffffffffffffffffffffffffffffffff\n      and\n      0xff13dfcde67ded719f9f66fcd1bc7d07cea0378c2644ddb51c79e501433050e1\n      mload(0x40)\n      mload(0x40)\n      dup1\n      swap2\n      sub\n      swap1\n      log2\n        /* \"contracts/CarRole.sol\":683:790  function _removeCar(address account) internal {... */\n      pop\n      jump\t// out\n        /* \"contracts/Roles.sol\":228:418  function add(Role storage role, address account) internal {... */\n    tag_31:\n        /* \"contracts/Roles.sol\":319:320  0 */\n      0x00\n        /* \"contracts/Roles.sol\":300:321  account != address(0) */\n      0xffffffffffffffffffffffffffffffffffffffff\n      and\n        /* \"contracts/Roles.sol\":300:307  account */\n      dup2\n        /* \"contracts/Roles.sol\":300:321  account != address(0) */\n      0xffffffffffffffffffffffffffffffffffffffff\n      and\n      eq\n      iszero\n        /* \"contracts/Roles.sol\":292:322  require(account != address(0)) */\n      tag_38\n      jumpi\n      0x00\n      dup1\n      revert\n    tag_38:\n        /* \"contracts/Roles.sol\":337:355  has(role, account) */\n      tag_39\n        /* \"contracts/Roles.sol\":341:345  role */\n      dup3\n        /* \"contracts/Roles.sol\":347:354  account */\n      dup3\n        /* \"contracts/Roles.sol\":337:340  has */\n      tag_25\n        /* \"contracts/Roles.sol\":337:355  has(role, account) */\n      jump\t// in\n    tag_39:\n        /* \"contracts/Roles.sol\":336:355  !has(role, account) */\n      iszero\n        /* \"contracts/Roles.sol\":328:356  require(!has(role, account)) */\n      tag_40\n      jumpi\n      0x00\n      dup1\n      revert\n    tag_40:\n        /* \"contracts/Roles.sol\":386:390  true */\n      0x01\n        /* \"contracts/Roles.sol\":363:367  role */\n      dup3\n        /* \"contracts/Roles.sol\":363:374  role.bearer */\n      0x00\n      add\n        /* \"contracts/Roles.sol\":363:383  role.bearer[account] */\n      0x00\n        /* \"contracts/Roles.sol\":375:382  account */\n      dup4\n        /* \"contracts/Roles.sol\":363:383  role.bearer[account] */\n      0xffffffffffffffffffffffffffffffffffffffff\n      and\n      0xffffffffffffffffffffffffffffffffffffffff\n      and\n      dup2\n      mstore\n      0x20\n      add\n      swap1\n      dup2\n      mstore\n      0x20\n      add\n      0x00\n      keccak256\n      0x00\n        /* \"contracts/Roles.sol\":363:390  role.bearer[account] = true */\n      0x0100\n      exp\n      dup2\n      sload\n      dup2\n      0xff\n      mul\n      not\n      and\n      swap1\n      dup4\n      iszero\n      iszero\n      mul\n      or\n      swap1\n      sstore\n      pop\n        /* \"contracts/Roles.sol\":412:413  1 */\n      0x01\n        /* \"contracts/Roles.sol\":396:400  role */\n      dup3\n        /* \"contracts/Roles.sol\":396:410  role.roleCount */\n      0x01\n      add\n      0x00\n        /* \"contracts/Roles.sol\":396:413  role.roleCount+=1 */\n      dup3\n      dup3\n      sload\n      tag_41\n      swap2\n      swap1\n      tag_42\n      jump\t// in\n    tag_41:\n      swap3\n      pop\n      pop\n      dup2\n      swap1\n      sstore\n      pop\n        /* \"contracts/Roles.sol\":228:418  function add(Role storage role, address account) internal {... */\n      pop\n      pop\n      jump\t// out\n        /* \"contracts/Roles.sol\":484:678  function remove(Role storage role, address account) internal {... */\n    tag_36:\n        /* \"contracts/Roles.sol\":578:579  0 */\n      0x00\n        /* \"contracts/Roles.sol\":559:580  account != address(0) */\n      0xffffffffffffffffffffffffffffffffffffffff\n      and\n        /* \"contracts/Roles.sol\":559:566  account */\n      dup2\n        /* \"contracts/Roles.sol\":559:580  account != address(0) */\n      0xffffffffffffffffffffffffffffffffffffffff\n      and\n      eq\n      iszero\n        /* \"contracts/Roles.sol\":551:581  require(account != address(0)) */\n      tag_44\n      jumpi\n      0x00\n      dup1\n      revert\n    tag_44:\n        /* \"contracts/Roles.sol\":595:613  has(role, account) */\n      tag_45\n        /* \"contracts/Roles.sol\":599:603  role */\n      dup3\n        /* \"contracts/Roles.sol\":605:612  account */\n      dup3\n        /* \"contracts/Roles.sol\":595:598  has */\n      tag_25\n        /* \"contracts/Roles.sol\":595:613  has(role, account) */\n      jump\t// in\n    tag_45:\n        /* \"contracts/Roles.sol\":587:614  require(has(role, account)) */\n      tag_46\n      jumpi\n      0x00\n      dup1\n      revert\n    tag_46:\n        /* \"contracts/Roles.sol\":644:649  false */\n      0x00\n        /* \"contracts/Roles.sol\":621:625  role */\n      dup3\n        /* \"contracts/Roles.sol\":621:632  role.bearer */\n      0x00\n      add\n        /* \"contracts/Roles.sol\":621:641  role.bearer[account] */\n      0x00\n        /* \"contracts/Roles.sol\":633:640  account */\n      dup4\n        /* \"contracts/Roles.sol\":621:641  role.bearer[account] */\n      0xffffffffffffffffffffffffffffffffffffffff\n      and\n      0xffffffffffffffffffffffffffffffffffffffff\n      and\n      dup2\n      mstore\n      0x20\n      add\n      swap1\n      dup2\n      mstore\n      0x20\n      add\n      0x00\n      keccak256\n      0x00\n        /* \"contracts/Roles.sol\":621:649  role.bearer[account] = false */\n      0x0100\n      exp\n      dup2\n      sload\n      dup2\n      0xff\n      mul\n      not\n      and\n      swap1\n      dup4\n      iszero\n      iszero\n      mul\n      or\n      swap1\n      sstore\n      pop\n        /* \"contracts/Roles.sol\":671:672  1 */\n      0x01\n        /* \"contracts/Roles.sol\":655:659  role */\n      dup3\n        /* \"contracts/Roles.sol\":655:669  role.roleCount */\n      0x01\n      add\n      0x00\n        /* \"contracts/Roles.sol\":655:672  role.roleCount-=1 */\n      dup3\n      dup3\n      sload\n      tag_47\n      swap2\n      swap1\n      tag_48\n      jump\t// in\n    tag_47:\n      swap3\n      pop\n      pop\n      dup2\n      swap1\n      sstore\n      pop\n        /* \"contracts/Roles.sol\":484:678  function remove(Role storage role, address account) internal {... */\n      pop\n      pop\n      jump\t// out\n        /* \"#utility.yul\":7:146   */\n    tag_50:\n        /* \"#utility.yul\":53:58   */\n      0x00\n        /* \"#utility.yul\":91:97   */\n      dup2\n        /* \"#utility.yul\":78:98   */\n      calldataload\n        /* \"#utility.yul\":69:98   */\n      swap1\n      pop\n        /* \"#utility.yul\":107:140   */\n      tag_52\n        /* \"#utility.yul\":134:139   */\n      dup2\n        /* \"#utility.yul\":107:140   */\n      tag_53\n      jump\t// in\n    tag_52:\n        /* \"#utility.yul\":7:146   */\n      swap3\n      swap2\n      pop\n      pop\n      jump\t// out\n        /* \"#utility.yul\":152:481   */\n    tag_8:\n        /* \"#utility.yul\":211:217   */\n      0x00\n        /* \"#utility.yul\":260:262   */\n      0x20\n        /* \"#utility.yul\":248:257   */\n      dup3\n        /* \"#utility.yul\":239:246   */\n      dup5\n        /* \"#utility.yul\":235:258   */\n      sub\n        /* \"#utility.yul\":231:263   */\n      slt\n        /* \"#utility.yul\":228:347   */\n      iszero\n      tag_55\n      jumpi\n        /* \"#utility.yul\":266:345   */\n      tag_56\n      tag_57\n      jump\t// in\n    tag_56:\n        /* \"#utility.yul\":228:347   */\n    tag_55:\n        /* \"#utility.yul\":386:387   */\n      0x00\n        /* \"#utility.yul\":411:464   */\n      tag_58\n        /* \"#utility.yul\":456:463   */\n      dup5\n        /* \"#utility.yul\":447:453   */\n      dup3\n        /* \"#utility.yul\":436:445   */\n      dup6\n        /* \"#utility.yul\":432:454   */\n      add\n        /* \"#utility.yul\":411:464   */\n      tag_50\n      jump\t// in\n    tag_58:\n        /* \"#utility.yul\":401:464   */\n      swap2\n      pop\n        /* \"#utility.yul\":357:474   */\n      pop\n        /* \"#utility.yul\":152:481   */\n      swap3\n      swap2\n      pop\n      pop\n      jump\t// out\n        /* \"#utility.yul\":487:596   */\n    tag_59:\n        /* \"#utility.yul\":568:589   */\n      tag_61\n        /* \"#utility.yul\":583:588   */\n      dup2\n        /* \"#utility.yul\":568:589   */\n      tag_62\n      jump\t// in\n    tag_61:\n        /* \"#utility.yul\":563:566   */\n      dup3\n        /* \"#utility.yul\":556:590   */\n      mstore\n        /* \"#utility.yul\":487:596   */\n      pop\n      pop\n      jump\t// out\n        /* \"#utility.yul\":602:812   */\n    tag_14:\n        /* \"#utility.yul\":689:693   */\n      0x00\n        /* \"#utility.yul\":727:729   */\n      0x20\n        /* \"#utility.yul\":716:725   */\n      dup3\n        /* \"#utility.yul\":712:730   */\n      add\n        /* \"#utility.yul\":704:730   */\n      swap1\n      pop\n        /* \"#utility.yul\":740:805   */\n      tag_64\n        /* \"#utility.yul\":802:803   */\n      0x00\n        /* \"#utility.yul\":791:800   */\n      dup4\n        /* \"#utility.yul\":787:804   */\n      add\n        /* \"#utility.yul\":778:784   */\n      dup5\n        /* \"#utility.yul\":740:805   */\n      tag_59\n      jump\t// in\n    tag_64:\n        /* \"#utility.yul\":602:812   */\n      swap3\n      swap2\n      pop\n      pop\n      jump\t// out\n        /* \"#utility.yul\":899:1204   */\n    tag_42:\n        /* \"#utility.yul\":939:942   */\n      0x00\n        /* \"#utility.yul\":958:978   */\n      tag_68\n        /* \"#utility.yul\":976:977   */\n      dup3\n        /* \"#utility.yul\":958:978   */\n      tag_69\n      jump\t// in\n    tag_68:\n        /* \"#utility.yul\":953:978   */\n      swap2\n      pop\n        /* \"#utility.yul\":992:1012   */\n      tag_70\n        /* \"#utility.yul\":1010:1011   */\n      dup4\n        /* \"#utility.yul\":992:1012   */\n      tag_69\n      jump\t// in\n    tag_70:\n        /* \"#utility.yul\":987:1012   */\n      swap3\n      pop\n        /* \"#utility.yul\":1146:1147   */\n      dup3\n        /* \"#utility.yul\":1078:1144   */\n      0xffffffffffffffffffffffffffffffffffffffffffffffffffffffffffffffff\n        /* \"#utility.yul\":1074:1148   */\n      sub\n        /* \"#utility.yul\":1071:1072   */\n      dup3\n        /* \"#utility.yul\":1068:1149   */\n      gt\n        /* \"#utility.yul\":1065:1172   */\n      iszero\n      tag_71\n      jumpi\n        /* \"#utility.yul\":1152:1170   */\n      tag_72\n      tag_73\n      jump\t// in\n    tag_72:\n        /* \"#utility.yul\":1065:1172   */\n    tag_71:\n        /* \"#utility.yul\":1196:1197   */\n      dup3\n        /* \"#utility.yul\":1193:1194   */\n      dup3\n        /* \"#utility.yul\":1189:1198   */\n      add\n        /* \"#utility.yul\":1182:1198   */\n      swap1\n      pop\n        /* \"#utility.yul\":899:1204   */\n      swap3\n      swap2\n      pop\n      pop\n      jump\t// out\n        /* \"#utility.yul\":1210:1401   */\n    tag_48:\n        /* \"#utility.yul\":1250:1254   */\n      0x00\n        /* \"#utility.yul\":1270:1290   */\n      tag_75\n        /* \"#utility.yul\":1288:1289   */\n      dup3\n        /* \"#utility.yul\":1270:1290   */\n      tag_69\n      jump\t// in\n    tag_75:\n        /* \"#utility.yul\":1265:1290   */\n      swap2\n      pop\n        /* \"#utility.yul\":1304:1324   */\n      tag_76\n        /* \"#utility.yul\":1322:1323   */\n      dup4\n        /* \"#utility.yul\":1304:1324   */\n      tag_69\n      jump\t// in\n    tag_76:\n        /* \"#utility.yul\":1299:1324   */\n      swap3\n      pop\n        /* \"#utility.yul\":1343:1344   */\n      dup3\n        /* \"#utility.yul\":1340:1341   */\n      dup3\n        /* \"#utility.yul\":1337:1345   */\n      lt\n        /* \"#utility.yul\":1334:1368   */\n      iszero\n      tag_77\n      jumpi\n        /* \"#utility.yul\":1348:1366   */\n      tag_78\n      tag_73\n      jump\t// in\n    tag_78:\n        /* \"#utility.yul\":1334:1368   */\n    tag_77:\n        /* \"#utility.yul\":1393:1394   */\n      dup3\n        /* \"#utility.yul\":1390:1391   */\n      dup3\n        /* \"#utility.yul\":1386:1395   */\n      sub\n        /* \"#utility.yul\":1378:1395   */\n      swap1\n      pop\n        /* \"#utility.yul\":1210:1401   */\n      swap3\n      swap2\n      pop\n      pop\n      jump\t// out\n        /* \"#utility.yul\":1407:1503   */\n    tag_79:\n        /* \"#utility.yul\":1444:1451   */\n      0x00\n        /* \"#utility.yul\":1473:1497   */\n      tag_81\n        /* \"#utility.yul\":1491:1496   */\n      dup3\n        /* \"#utility.yul\":1473:1497   */\n      tag_82\n      jump\t// in\n    tag_81:\n        /* \"#utility.yul\":1462:1497   */\n      swap1\n      pop\n        /* \"#utility.yul\":1407:1503   */\n      swap2\n      swap1\n      pop\n      jump\t// out\n        /* \"#utility.yul\":1509:1599   */\n    tag_62:\n        /* \"#utility.yul\":1543:1550   */\n      0x00\n        /* \"#utility.yul\":1586:1591   */\n      dup2\n        /* \"#utility.yul\":1579:1592   */\n      iszero\n        /* \"#utility.yul\":1572:1593   */\n      iszero\n        /* \"#utility.yul\":1561:1593   */\n      swap1\n      pop\n        /* \"#utility.yul\":1509:1599   */\n      swap2\n      swap1\n      pop\n      jump\t// out\n        /* \"#utility.yul\":1605:1731   */\n    tag_82:\n        /* \"#utility.yul\":1642:1649   */\n      0x00\n        /* \"#utility.yul\":1682:1724   */\n      0xffffffffffffffffffffffffffffffffffffffff\n        /* \"#utility.yul\":1675:1680   */\n      dup3\n        /* \"#utility.yul\":1671:1725   */\n      and\n        /* \"#utility.yul\":1660:1725   */\n      swap1\n      pop\n        /* \"#utility.yul\":1605:1731   */\n      swap2\n      swap1\n      pop\n      jump\t// out\n        /* \"#utility.yul\":1737:1814   */\n    tag_69:\n        /* \"#utility.yul\":1774:1781   */\n      0x00\n        /* \"#utility.yul\":1803:1808   */\n      dup2\n        /* \"#utility.yul\":1792:1808   */\n      swap1\n      pop\n        /* \"#utility.yul\":1737:1814   */\n      swap2\n      swap1\n      pop\n      jump\t// out\n        /* \"#utility.yul\":1820:2000   */\n    tag_73:\n        /* \"#utility.yul\":1868:1945   */\n      0x4e487b7100000000000000000000000000000000000000000000000000000000\n        /* \"#utility.yul\":1865:1866   */\n      0x00\n        /* \"#utility.yul\":1858:1946   */\n      mstore\n        /* \"#utility.yul\":1965:1969   */\n      0x11\n        /* \"#utility.yul\":1962:1963   */\n      0x04\n        /* \"#utility.yul\":1955:1970   */\n      mstore\n        /* \"#utility.yul\":1989:1993   */\n      0x24\n        /* \"#utility.yul\":1986:1987   */\n      0x00\n        /* \"#utility.yul\":1979:1994   */\n      revert\n        /* \"#utility.yul\":2129:2246   */\n    tag_57:\n        /* \"#utility.yul\":2238:2239   */\n      0x00\n        /* \"#utility.yul\":2235:2236   */\n      dup1\n        /* \"#utility.yul\":2228:2240   */\n      revert\n        /* \"#utility.yul\":2252:2374   */\n    tag_53:\n        /* \"#utility.yul\":2325:2349   */\n      tag_91\n        /* \"#utility.yul\":2343:2348   */\n      dup2\n        /* \"#utility.yul\":2325:2349   */\n      tag_79\n      jump\t// in\n    tag_91:\n        /* \"#utility.yul\":2318:2323   */\n      dup2\n        /* \"#utility.yul\":2315:2350   */\n      eq\n        /* \"#utility.yul\":2305:2368   */\n      tag_92\n      jumpi\n        /* \"#utility.yul\":2364:2365   */\n      0x00\n        /* \"#utility.yul\":2361:2362   */\n      dup1\n        /* \"#utility.yul\":2354:2366   */\n      revert\n        /* \"#utility.yul\":2305:2368   */\n    tag_92:\n        /* \"#utility.yul\":2252:2374   */\n      pop\n      jump\t// out\n\n    auxdata: 0xa2646970667358221220b8ee8c0d3d9e7fdd063af8d07d495421c976420d37c59f71d4bcc8830d98b3de64736f6c63430008070033\n}\n",
				"bytecode": {
					"linkReferences": {},
					"object": "608060405234801561001057600080fd5b50610576806100206000396000f3fe608060405234801561001057600080fd5b50600436106100415760003560e01c8063102de9e5146100465780634bd1d56014610062578063f3844bca14610092575b600080fd5b610060600480360381019061005b91906103cc565b61009c565b005b61007c600480360381019061007791906103cc565b6100ba565b6040516100899190610408565b60405180910390f35b61009a6100d7565b005b6100a5336100ba565b6100ae57600080fd5b6100b7816100e2565b50565b60006100d082600061013c90919063ffffffff16565b9050919050565b6100e0336101ce565b565b6100f681600061022890919063ffffffff16565b8073ffffffffffffffffffffffffffffffffffffffff167f596f84065eb55bc6e20c50254558a4800f798e542d362998a6b7f7680b6f91ee60405160405180910390a250565b60008073ffffffffffffffffffffffffffffffffffffffff168273ffffffffffffffffffffffffffffffffffffffff16141561017757600080fd5b8260000160008373ffffffffffffffffffffffffffffffffffffffff1673ffffffffffffffffffffffffffffffffffffffff16815260200190815260200160002060009054906101000a900460ff16905092915050565b6101e28160006102f090919063ffffffff16565b8073ffffffffffffffffffffffffffffffffffffffff167fff13dfcde67ded719f9f66fcd1bc7d07cea0378c2644ddb51c79e501433050e160405160405180910390a250565b600073ffffffffffffffffffffffffffffffffffffffff168173ffffffffffffffffffffffffffffffffffffffff16141561026257600080fd5b61026c828261013c565b1561027657600080fd5b60018260000160008373ffffffffffffffffffffffffffffffffffffffff1673ffffffffffffffffffffffffffffffffffffffff16815260200190815260200160002060006101000a81548160ff02191690831515021790555060018260010160008282546102e59190610423565b925050819055505050565b600073ffffffffffffffffffffffffffffffffffffffff168173ffffffffffffffffffffffffffffffffffffffff16141561032a57600080fd5b610334828261013c565b61033d57600080fd5b60008260000160008373ffffffffffffffffffffffffffffffffffffffff1673ffffffffffffffffffffffffffffffffffffffff16815260200190815260200160002060006101000a81548160ff02191690831515021790555060018260010160008282546103ac9190610479565b925050819055505050565b6000813590506103c681610529565b92915050565b6000602082840312156103e2576103e1610524565b5b60006103f0848285016103b7565b91505092915050565b610402816104bf565b82525050565b600060208201905061041d60008301846103f9565b92915050565b600061042e826104eb565b9150610439836104eb565b9250827fffffffffffffffffffffffffffffffffffffffffffffffffffffffffffffffff0382111561046e5761046d6104f5565b5b828201905092915050565b6000610484826104eb565b915061048f836104eb565b9250828210156104a2576104a16104f5565b5b828203905092915050565b60006104b8826104cb565b9050919050565b60008115159050919050565b600073ffffffffffffffffffffffffffffffffffffffff82169050919050565b6000819050919050565b7f4e487b7100000000000000000000000000000000000000000000000000000000600052601160045260246000fd5b600080fd5b610532816104ad565b811461053d57600080fd5b5056fea2646970667358221220b8ee8c0d3d9e7fdd063af8d07d495421c976420d37c59f71d4bcc8830d98b3de64736f6c63430008070033",
					"opcodes": "PUSH1 0x80 PUSH1 0x40 MSTORE CALLVALUE DUP1 ISZERO PUSH2 0x10 JUMPI PUSH1 0x0 DUP1 REVERT JUMPDEST POP PUSH2 0x576 DUP1 PUSH2 0x20 PUSH1 0x0 CODECOPY PUSH1 0x0 RETURN INVALID PUSH1 0x80 PUSH1 0x40 MSTORE CALLVALUE DUP1 ISZERO PUSH2 0x10 JUMPI PUSH1 0x0 DUP1 REVERT JUMPDEST POP PUSH1 0x4 CALLDATASIZE LT PUSH2 0x41 JUMPI PUSH1 0x0 CALLDATALOAD PUSH1 0xE0 SHR DUP1 PUSH4 0x102DE9E5 EQ PUSH2 0x46 JUMPI DUP1 PUSH4 0x4BD1D560 EQ PUSH2 0x62 JUMPI DUP1 PUSH4 0xF3844BCA EQ PUSH2 0x92 JUMPI JUMPDEST PUSH1 0x0 DUP1 REVERT JUMPDEST PUSH2 0x60 PUSH1 0x4 DUP1 CALLDATASIZE SUB DUP2 ADD SWAP1 PUSH2 0x5B SWAP2 SWAP1 PUSH2 0x3CC JUMP JUMPDEST PUSH2 0x9C JUMP JUMPDEST STOP JUMPDEST PUSH2 0x7C PUSH1 0x4 DUP1 CALLDATASIZE SUB DUP2 ADD SWAP1 PUSH2 0x77 SWAP2 SWAP1 PUSH2 0x3CC JUMP JUMPDEST PUSH2 0xBA JUMP JUMPDEST PUSH1 0x40 MLOAD PUSH2 0x89 SWAP2 SWAP1 PUSH2 0x408 JUMP JUMPDEST PUSH1 0x40 MLOAD DUP1 SWAP2 SUB SWAP1 RETURN JUMPDEST PUSH2 0x9A PUSH2 0xD7 JUMP JUMPDEST STOP JUMPDEST PUSH2 0xA5 CALLER PUSH2 0xBA JUMP JUMPDEST PUSH2 0xAE JUMPI PUSH1 0x0 DUP1 REVERT JUMPDEST PUSH2 0xB7 DUP2 PUSH2 0xE2 JUMP JUMPDEST POP JUMP JUMPDEST PUSH1 0x0 PUSH2 0xD0 DUP3 PUSH1 0x0 PUSH2 0x13C SWAP1 SWAP2 SWAP1 PUSH4 0xFFFFFFFF AND JUMP JUMPDEST SWAP1 POP SWAP2 SWAP1 POP JUMP JUMPDEST PUSH2 0xE0 CALLER PUSH2 0x1CE JUMP JUMPDEST JUMP JUMPDEST PUSH2 0xF6 DUP2 PUSH1 0x0 PUSH2 0x228 SWAP1 SWAP2 SWAP1 PUSH4 0xFFFFFFFF AND JUMP JUMPDEST DUP1 PUSH20 0xFFFFFFFFFFFFFFFFFFFFFFFFFFFFFFFFFFFFFFFF AND PUSH32 0x596F84065EB55BC6E20C50254558A4800F798E542D362998A6B7F7680B6F91EE PUSH1 0x40 MLOAD PUSH1 0x40 MLOAD DUP1 SWAP2 SUB SWAP1 LOG2 POP JUMP JUMPDEST PUSH1 0x0 DUP1 PUSH20 0xFFFFFFFFFFFFFFFFFFFFFFFFFFFFFFFFFFFFFFFF AND DUP3 PUSH20 0xFFFFFFFFFFFFFFFFFFFFFFFFFFFFFFFFFFFFFFFF AND EQ ISZERO PUSH2 0x177 JUMPI PUSH1 0x0 DUP1 REVERT JUMPDEST DUP3 PUSH1 0x0 ADD PUSH1 0x0 DUP4 PUSH20 0xFFFFFFFFFFFFFFFFFFFFFFFFFFFFFFFFFFFFFFFF AND PUSH20 0xFFFFFFFFFFFFFFFFFFFFFFFFFFFFFFFFFFFFFFFF AND DUP2 MSTORE PUSH1 0x20 ADD SWAP1 DUP2 MSTORE PUSH1 0x20 ADD PUSH1 0x0 KECCAK256 PUSH1 0x0 SWAP1 SLOAD SWAP1 PUSH2 0x100 EXP SWAP1 DIV PUSH1 0xFF AND SWAP1 POP SWAP3 SWAP2 POP POP JUMP JUMPDEST PUSH2 0x1E2 DUP2 PUSH1 0x0 PUSH2 0x2F0 SWAP1 SWAP2 SWAP1 PUSH4 0xFFFFFFFF AND JUMP JUMPDEST DUP1 PUSH20 0xFFFFFFFFFFFFFFFFFFFFFFFFFFFFFFFFFFFFFFFF AND PUSH32 0xFF13DFCDE67DED719F9F66FCD1BC7D07CEA0378C2644DDB51C79E501433050E1 PUSH1 0x40 MLOAD PUSH1 0x40 MLOAD DUP1 SWAP2 SUB SWAP1 LOG2 POP JUMP JUMPDEST PUSH1 0x0 PUSH20 0xFFFFFFFFFFFFFFFFFFFFFFFFFFFFFFFFFFFFFFFF AND DUP2 PUSH20 0xFFFFFFFFFFFFFFFFFFFFFFFFFFFFFFFFFFFFFFFF AND EQ ISZERO PUSH2 0x262 JUMPI PUSH1 0x0 DUP1 REVERT JUMPDEST PUSH2 0x26C DUP3 DUP3 PUSH2 0x13C JUMP JUMPDEST ISZERO PUSH2 0x276 JUMPI PUSH1 0x0 DUP1 REVERT JUMPDEST PUSH1 0x1 DUP3 PUSH1 0x0 ADD PUSH1 0x0 DUP4 PUSH20 0xFFFFFFFFFFFFFFFFFFFFFFFFFFFFFFFFFFFFFFFF AND PUSH20 0xFFFFFFFFFFFFFFFFFFFFFFFFFFFFFFFFFFFFFFFF AND DUP2 MSTORE PUSH1 0x20 ADD SWAP1 DUP2 MSTORE PUSH1 0x20 ADD PUSH1 0x0 KECCAK256 PUSH1 0x0 PUSH2 0x100 EXP DUP2 SLOAD DUP2 PUSH1 0xFF MUL NOT AND SWAP1 DUP4 ISZERO ISZERO MUL OR SWAP1 SSTORE POP PUSH1 0x1 DUP3 PUSH1 0x1 ADD PUSH1 0x0 DUP3 DUP3 SLOAD PUSH2 0x2E5 SWAP2 SWAP1 PUSH2 0x423 JUMP JUMPDEST SWAP3 POP POP DUP2 SWAP1 SSTORE POP POP POP JUMP JUMPDEST PUSH1 0x0 PUSH20 0xFFFFFFFFFFFFFFFFFFFFFFFFFFFFFFFFFFFFFFFF AND DUP2 PUSH20 0xFFFFFFFFFFFFFFFFFFFFFFFFFFFFFFFFFFFFFFFF AND EQ ISZERO PUSH2 0x32A JUMPI PUSH1 0x0 DUP1 REVERT JUMPDEST PUSH2 0x334 DUP3 DUP3 PUSH2 0x13C JUMP JUMPDEST PUSH2 0x33D JUMPI PUSH1 0x0 DUP1 REVERT JUMPDEST PUSH1 0x0 DUP3 PUSH1 0x0 ADD PUSH1 0x0 DUP4 PUSH20 0xFFFFFFFFFFFFFFFFFFFFFFFFFFFFFFFFFFFFFFFF AND PUSH20 0xFFFFFFFFFFFFFFFFFFFFFFFFFFFFFFFFFFFFFFFF AND DUP2 MSTORE PUSH1 0x20 ADD SWAP1 DUP2 MSTORE PUSH1 0x20 ADD PUSH1 0x0 KECCAK256 PUSH1 0x0 PUSH2 0x100 EXP DUP2 SLOAD DUP2 PUSH1 0xFF MUL NOT AND SWAP1 DUP4 ISZERO ISZERO MUL OR SWAP1 SSTORE POP PUSH1 0x1 DUP3 PUSH1 0x1 ADD PUSH1 0x0 DUP3 DUP3 SLOAD PUSH2 0x3AC SWAP2 SWAP1 PUSH2 0x479 JUMP JUMPDEST SWAP3 POP POP DUP2 SWAP1 SSTORE POP POP POP JUMP JUMPDEST PUSH1 0x0 DUP2 CALLDATALOAD SWAP1 POP PUSH2 0x3C6 DUP2 PUSH2 0x529 JUMP JUMPDEST SWAP3 SWAP2 POP POP JUMP JUMPDEST PUSH1 0x0 PUSH1 0x20 DUP3 DUP5 SUB SLT ISZERO PUSH2 0x3E2 JUMPI PUSH2 0x3E1 PUSH2 0x524 JUMP JUMPDEST JUMPDEST PUSH1 0x0 PUSH2 0x3F0 DUP5 DUP3 DUP6 ADD PUSH2 0x3B7 JUMP JUMPDEST SWAP2 POP POP SWAP3 SWAP2 POP POP JUMP JUMPDEST PUSH2 0x402 DUP2 PUSH2 0x4BF JUMP JUMPDEST DUP3 MSTORE POP POP JUMP JUMPDEST PUSH1 0x0 PUSH1 0x20 DUP3 ADD SWAP1 POP PUSH2 0x41D PUSH1 0x0 DUP4 ADD DUP5 PUSH2 0x3F9 JUMP JUMPDEST SWAP3 SWAP2 POP POP JUMP JUMPDEST PUSH1 0x0 PUSH2 0x42E DUP3 PUSH2 0x4EB JUMP JUMPDEST SWAP2 POP PUSH2 0x439 DUP4 PUSH2 0x4EB JUMP JUMPDEST SWAP3 POP DUP3 PUSH32 0xFFFFFFFFFFFFFFFFFFFFFFFFFFFFFFFFFFFFFFFFFFFFFFFFFFFFFFFFFFFFFFFF SUB DUP3 GT ISZERO PUSH2 0x46E JUMPI PUSH2 0x46D PUSH2 0x4F5 JUMP JUMPDEST JUMPDEST DUP3 DUP3 ADD SWAP1 POP SWAP3 SWAP2 POP POP JUMP JUMPDEST PUSH1 0x0 PUSH2 0x484 DUP3 PUSH2 0x4EB JUMP JUMPDEST SWAP2 POP PUSH2 0x48F DUP4 PUSH2 0x4EB JUMP JUMPDEST SWAP3 POP DUP3 DUP3 LT ISZERO PUSH2 0x4A2 JUMPI PUSH2 0x4A1 PUSH2 0x4F5 JUMP JUMPDEST JUMPDEST DUP3 DUP3 SUB SWAP1 POP SWAP3 SWAP2 POP POP JUMP JUMPDEST PUSH1 0x0 PUSH2 0x4B8 DUP3 PUSH2 0x4CB JUMP JUMPDEST SWAP1 POP SWAP2 SWAP1 POP JUMP JUMPDEST PUSH1 0x0 DUP2 ISZERO ISZERO SWAP1 POP SWAP2 SWAP1 POP JUMP JUMPDEST PUSH1 0x0 PUSH20 0xFFFFFFFFFFFFFFFFFFFFFFFFFFFFFFFFFFFFFFFF DUP3 AND SWAP1 POP SWAP2 SWAP1 POP JUMP JUMPDEST PUSH1 0x0 DUP2 SWAP1 POP SWAP2 SWAP1 POP JUMP JUMPDEST PUSH32 0x4E487B7100000000000000000000000000000000000000000000000000000000 PUSH1 0x0 MSTORE PUSH1 0x11 PUSH1 0x4 MSTORE PUSH1 0x24 PUSH1 0x0 REVERT JUMPDEST PUSH1 0x0 DUP1 REVERT JUMPDEST PUSH2 0x532 DUP2 PUSH2 0x4AD JUMP JUMPDEST DUP2 EQ PUSH2 0x53D JUMPI PUSH1 0x0 DUP1 REVERT JUMPDEST POP JUMP INVALID LOG2 PUSH5 0x6970667358 0x22 SLT KECCAK256 0xB8 0xEE DUP13 0xD RETURNDATASIZE SWAP15 PUSH32 0xDD063AF8D07D495421C976420D37C59F71D4BCC8830D98B3DE64736F6C634300 ADDMOD SMOD STOP CALLER "
				},
				"gasEstimates": {
					"creation": {
						"codeDepositCost": "279600",
						"executionCost": "318",
						"totalCost": "279918"
					},
					"external": {
						"addCar(address)": "infinite",
						"isCar(address)": "infinite",
						"renounceCar()": "infinite"
					},
					"internal": {
						"_addCar(address)": "infinite",
						"_removeCar(address)": "infinite"
					}
				},
				"methodIdentifiers": {
					"addCar(address)": "102de9e5",
					"isCar(address)": "4bd1d560",
					"renounceCar()": "f3844bca"
				}
			},
			"storageLayout": {
				"storage": [
					{
						"astId": 17,
						"contract": "contracts/CarRole.sol:CarRole",
						"label": "cars",
						"offset": 0,
						"slot": "0",
						"type": "t_struct(Role)104_storage"
					}
				],
				"types": {
					"t_address": {
						"encoding": "inplace",
						"label": "address",
						"numberOfBytes": "20"
					},
					"t_bool": {
						"encoding": "inplace",
						"label": "bool",
						"numberOfBytes": "1"
					},
					"t_mapping(t_address,t_bool)": {
						"encoding": "mapping",
						"key": "t_address",
						"label": "mapping(address => bool)",
						"numberOfBytes": "32",
						"value": "t_bool"
					},
					"t_struct(Role)104_storage": {
						"encoding": "inplace",
						"label": "struct Roles.Role",
						"members": [
							{
								"astId": 101,
								"contract": "contracts/CarRole.sol:CarRole",
								"label": "bearer",
								"offset": 0,
								"slot": "0",
								"type": "t_mapping(t_address,t_bool)"
							},
							{
								"astId": 103,
								"contract": "contracts/CarRole.sol:CarRole",
								"label": "roleCount",
								"offset": 0,
								"slot": "1",
								"type": "t_uint256"
							}
						],
						"numberOfBytes": "64"
					},
					"t_uint256": {
						"encoding": "inplace",
						"label": "uint256",
						"numberOfBytes": "32"
					}
				}
			},
			"userdoc": {
				"kind": "user",
				"methods": {},
				"version": 1
			}
		}
	}
}